0070307032653505                  Test User                 REVOLT21                                                           2
12001BE68539007547034                  EUR0000000002000000140126Test User                                                    001
2100010000                     1000000000042500150126143010000Delhaize                                             1501260010  0
2100020000                     1000000000500000160126101370000Transfer to Jan Peeters                              1601260010  0
2100030000                     0000000002000000170126101010000Top-Up by *1234                                      1701260010  0
2100040000                     1000000000065300180126143010000Colruyt                                              1801260010  0
2100050000                     0000000001500000200126101010000Payment from ACME BVBA                               2001260010  0
2100060000                     1000000000200000210126141010000Exchanged to USD                                     2101260010  0
2100070000                     1000000000001500210126135010000Fee: Exchanged to USD                                2101260010  0
2100080000                     1000000000089990220126143010000Amazon.de                                            2201260010  0
2100090000                     1000000000850000230126101370000Rent payment                                         2301260010  0
8001BE68539007547034                  EUR0000000003750710230126                                                                0
9               000011000000001749290000000003500000                                                                           1
